:020000040000FA
:06000000B9EF07F0120049
:020006001200E6
:0600080047EF04F01200B6
:02000E0099B1A6
:07001000000A0000000000DF
:06001800B7EF04F0120036
:02001E000100DF
:0C0020000E000000AC0000000900000011
:04002C00D9CFE6FF43
:10003000E1CFD9FFE652DF6A0001B06BB16BACA231
:10004000FED7FC0EDBCFE6FFFD0EDBCFE6FFFE0E9C
:10005000DBCFE6FFAEEC06F0E552E552E552F90ED5
:10006000DBCF00F0FA0EDBCF01F0FB0EDBCF02F0AE
:100070000050011002103AE0D950F70FE96EFF0E60
:10008000DA20EA6EEE50ED1031E0F70EDBCF00F033
:10009000DB06F80EDBCF01F001E2DB0600500110B9
:1000A0001AE0320EE66E8BEC07F0E5520001B1511A
:1000B000800B10E0F90EDBCFE6FFFA0EDBCFE6FF98
:1000C000FB0EDBCFE6FF78D8E552E552E55200099A
:1000D00001E001D0DAD7D950F70FE96EFF0EDA2030
:1000E000EA6EEE50ED1002E1010EDF6EDF5000D03F
:1000F000E552E552E7CFD9FF1200D9CFE6FFE1CFB5
:10010000D9FFE652DF6A0001B06BB16BACA2FED73B
:10011000FE0EDBCFE6FFA2EC07F0E552FB0EDBCFD5
:1001200000F0FC0EDBCF01F0FD0EDBCF02F0005043
:10013000011002103AE0D950F90FE96EFF0EDA20F3
:10014000EA6EEE50ED1031E0F90EDBCF00F0DB0689
:10015000FA0EDBCF01F001E2DB06005001101AE0DD
:10016000320EE66E8BEC07F0E5520001B151800BC8
:1001700010E0FB0EDBCFE6FFFC0EDBCFE6FFFD0E53
:10018000DBCFE6FF19D8E552E552E552000901E060
:1001900001D0DAD7D950F90FE96EFF0EDA20EA6EF6
:1001A000EE50ED1002E1010EDF6EDF5000D0E5529F
:1001B000E552E7CFD9FF1200D9CFE6FFE1CFD9FF53
:1001C000020EE126DE6ADD6AFF0E0001B015E96E5F
:1001D0007F0EB115EA6E600EE926000EEA22EF6A84
:1001E000FC0EDBCFE6FFFD0EDBCFE6FF600EE66E1A
:1001F000000EE66E3CEC06F0E552E552E552E552A3
:10020000F3CFDEFFF4CFDDFF0001B06BB16BD9CFD0
:10021000E9FFDACFEAFFEE50ED1003E0010E03D064
:1002200002D0000E00D0006E020EE15C02E2E16A34
:10023000E552E16E0050E552E7CFD9FF1200D9CF69
:10024000E6FFE1CFD9FF020EE1260001B06BB16BF2
:10025000ACA2FED7620EE66E0B0EE66E000EE66EE8
:10026000AEEC06F0E552E552E5520001B151800BCB
:1002700001E1FBD7FF0EB015E96E7F0EB115EA6EF6
:10028000600EE926000EEA22EF6A600EE66E000EAE
:10029000E66EDECFE6FFDDCFE6FF1BEC06F0E552B3
:1002A000E552E552E552DECF00F0DDCF01F000C0AF
:1002B000F3FF01C0F4FF020EE15C03E200D0E16A4B
:1002C000E552E16EE552E7CFD9FF1200580EE66E17
:1002D000020EE66E580EE66E0B0EE66E000EE66E31
:1002E0005B0EE66E0B0EE66E000EE66E9FDE006E97
:1002F000080EE15E0050320EE66E8BEC07F0E55220
:10030000580EE66E020EE66E580EE66E0B0EE66EA8
:10031000000EE66E4D0EE66E0B0EE66E000EE66EFD
:1003200085DE006E080EE15E0050320EE66E8BEC4C
:1003300007F0E552580EE66E020EE66E580EE66EB7
:100340000B0EE66E000EE66E440EE66E0B0EE66ECB
:10035000000EE66E6BDE006E080EE15E0050320E9F
:10036000E66E8BEC07F0E552580EE66E020EE66E76
:10037000580EE66E0B0EE66E000EE66E390EE66E59
:100380000B0EE66E000EE66E51DE006E080EE15EAC
:100390000050320EE66E8BEC07F0E552580EE66E1A
:1003A000020EE66E580EE66E0B0EE66E000EE66E60
:1003B0002D0EE66E0B0EE66E000EE66E37DE006E5C
:1003C000080EE15E0050320EE66E8BEC07F0E5524F
:1003D000580EE66E020EE66E580EE66E0B0EE66ED8
:1003E000000EE66E200EE66E0B0EE66E000EE66E5A
:1003F0001DDE006E080EE15E0050320EE66E8BECE4
:1004000007F0E552580EE66E020EE66E580EE66EE6
:100410000B0EE66E000EE66E120EE66E0B0EE66E2C
:10042000000EE66E03DE006E080EE15E0050320E36
:10043000E66E8BEC07F0E552580EE66E020EE66EA5
:10044000580EE66E0B0EE66E000EE66E040EE66EBD
:100450000B0EE66E000EE66EE9DD006E080EE15E44
:100460000050320EE66E8BEC07F0E552580EE66E49
:10047000020EE66E580EE66E0B0EE66E000EE66E8F
:10048000F50EE66E0A0EE66E000EE66ECFDD006E2D
:10049000080EE15E0050320EE66E8BEC07F0E5527E
:1004A000580EE66E020EE66E580EE66E0B0EE66E07
:1004B000000EE66EDF0EE66E0A0EE66E000EE66ECB
:1004C000B5DD006E080EE15E0050320EE66E8BEC7C
:1004D00007F0E552580EE66E020EE66EC90EE66EA5
:1004E0000A0EE66E000EE66ED20EE66E0A0EE66E9E
:1004F000000EE66E9BDD006E080EE15E0050320ECF
:10050000E66E8BEC07F0E552580EE66E020EE66ED4
:10051000580EE66E0B0EE66E000EE66EBB0EE66E35
:100520000A0EE66E000EE66E81DD006E080EE15EDC
:100530000050320EE66E8BEC07F0E552580EE66E78
:10054000020EE66E580EE66E0B0EE66E000EE66EBE
:10055000B00EE66E0A0EE66E000EE66E67DD006E09
:10056000080EE15E0050320EE66E8BEC07F0E552AD
:10057000ACA2FED7A30EE66E0A0EE66E000EE66E85
:10058000AEEC06F0E552E552E552320EE66E8BEC2B
:1005900007F0E552580EE66E020EE66E580EE66E55
:1005A0000B0EE66E000EE66E9C0EE66E0A0EE66E12
:1005B000000EE66E3BDD006E080EE15E0050320E6E
:1005C000E66E8BEC07F0E552580EE66E020EE66E14
:1005D000580EE66E0B0EE66E000EE66E8D0EE66EA3
:1005E0000A0EE66E000EE66E21DD006E080EE15E7C
:1005F0000050320EE66E8BEC07F0E552580EE66EB8
:10060000020EE66E580EE66E0B0EE66E000EE66EFD
:10061000600EE66E0A0EE66E000EE66E07DD006EF8
:10062000080EE15E0050640EE66E8BEC07F0E552BA
:100630001200D9CFE6FFE1CFD9FF580EE66E020EC9
:10064000E66E520EE66E0A0EE66E000EE66E540E72
:10065000E66E0A0EE66E000EE66EE8DC006E080E30
:10066000E15E0050ACA2FED7FD0EDBCFE6FFFE0E32
:10067000DBCFE6FF0EEC07F0E552E552580EE66ED2
:10068000020EE66E4A0EE66E0A0EE66E000EE66E8C
:100690001A0EE66E32DD006E060EE15E0050E55287
:0606A000E7CFD9FF1200B4
:0A06A600D18092909284929692986F
:1006B000938494909492956A9680968296840F0E75
:1006C000C16E070EB46E6D966F868B908996D08E34
:1006D000F28EF28C9F8AF194920EE66E6FEC07F028
:1006E000E5528E0EE66EFD0EE66E53EC07F0E55217
:1006F000E552810EE66EE66A7C0EE66E69EC06F067
:10070000E552E552E5521200050EE66EE66AE0ECAF
:1007100006F0E552E55212000001B18FB36B1200F2
:10072000D9CFE6FFE1CFD9FFE652DF6AFE0EDBCF7D
:10073000AEF0580EE66E020EE66E880EE66E0B0EFA
:10074000E66E000EE66E8A0EE66E0B0EE66E000E8C
:10075000E66E16EC00F0006E080EE15E0050ACA2F2
:10076000FED7AC0EE66E000EE66E0EEC07F0E5521C
:10077000E552FB0EDBCF00F0FC0EDBCF01F0FD0EEF
:10078000DBCF02F00050011002103BE0D950F90F0E
:10079000E96EFF0EDA20EA6EEE50ED1032E0F90E4F
:1007A000DBCF00F0DB06FA0EDBCF01F001E2DB0667
:1007B000005001101BE0320EE66E8BEC07F0E552A4
:1007C0000001B151800B11E0FB0EDBCFE6FFFC0E08
:1007D000DBCFE6FFFD0EDBCFE6FFDCEC00F0E55201
:1007E000E552E552000901E001D0D9D7D950F90FFF
:1007F000E96EFF0EDA20EA6EEE50ED1002E1010E16
:10080000DF6EDF5000D0E552E552E7CFD9FF12008E
:100810004ADF7ADF66EC01F004000001B151800B81
:1008200017E07A0EE66E0B0EE66E000EE66EDCEC5E
:1008300000F0E552E552E552000907E01FEC01F037
:10084000F3CFA0F0F4CFA1F08B700001B06BB16BCF
:1008500081A403D00001010EB46F8150040B15E197
:100860000001B40512E10001B46BC80EE66EE66A41
:10087000770EE66E0B0EE66E000EE66E010EE66E6D
:100880004FDF006E060EE15E0050C6D71200DACFD1
:10089000E4FFE2CFDAFFE9CFE4FFEACFE4FFF6CFEF
:1008A000E4FFF7CFE4FFF8CFE4FFF5CFE4FFF3CFA9
:1008B000E4FFF4CFE4FFFACFE4FFFBCFE4FF00EE68
:1008C00003F0020EE80403E3EECFE4FFFBD700EEF3
:1008D00000F0030EE80403E3EECFE4FFFBD7E6529B
:1008E0009EAA1DD09E9A0001400EB05D000EB15927
:1008F00016E2010EB36FB26B34EC07F0E66E000146
:10090000B0C0E9FFB1C0EAFFB02B000EB123600E0A
:10091000E926000EEA22E552E750EF6E00D0E552DC
:1009200000EE02F0030EE80403E3E5CFEDFFFBD792
:1009300000EE04F0020EE80403E3E5CFEDFFFBD781
:10094000E5CFFBFFE5CFFAFFE5CFF4FFE5CFF3FFFF
:10095000E5CFF5FFE5CFF8FFE5CFF7FFE5CFF6FFF1
:10096000E5CFEAFFE5CFE9FFE5CFDAFF1100D8CF09
:10097000E4FFE0CFE4FFE46EDACFE4FFE2CFDAFF9A
:10098000E9CFE4FFEACFE4FFF6CFE4FFF7CFE4FFDF
:10099000F8CFE4FFF5CFE4FFF3CFE4FFF4CFE4FFBB
:1009A000FACFE4FFFBCFE4FF00EE03F0020EE80411
:1009B00003E3EECFE4FFFBD700EE00F0030EE80404
:1009C00003E3EECFE4FFFBD7E652F2A411D0F2949A
:1009D0008E0EE66EFD0EE66E53EC07F0E552E55224
:1009E0000001B22BB30504E10A0EB25D01E394DE0F
:1009F000E55200EE02F0030EE80403E3E5CFEDFF5D
:100A0000FBD700EE04F0020EE80403E3E5CFEDFFB0
:100A1000FBD7E5CFFBFFE5CFFAFFE5CFF4FFE5CF4E
:100A2000F3FFE5CFF5FFE5CFF8FFE5CFF7FFE5CF23
:100A3000F6FFE5CFEAFFE5CFE9FFE5CFDAFFE550C6
:0A0A4000E5CFE0FFE5CFD8FF10007E
:060A4A0053454E44204F0D
:100A50004B003E0041542B514953454E440D0A0072
:100A600041542B51494F50454E3D22544350222C66
:100A70002263776C303132372E786963702E6E6561
:100A800074222C223430383039220D0A0041542B84
:100A90005149444E5349503D310D0A00415456319D
:100AA0000D0A0041542B51494C4F4349500D0A0047
:100AB00041542B51494143540D0A0041542B514993
:100AC0005245474150500D0A004445414354204F80
:100AD0004B0041542B514944454143540D0A0041B8
:100AE000542B5149435347503D312C22434D4E45E1
:100AF00054220D0A0041542B51494647434E543D60
:100B0000300D0A0041542B5149484541443D310DB7
:100B10000A0041542B51494D4F44453D300D0A00C8
:100B200041542B51494E44493D310D0A0041542B4B
:100B300043475245473F0D0A0041542B4352454716
:100B40003F0D0A0041542B4353510D0A0041542BD1
:100B50004350494E3F0D0A004F4B00415445300D64
:100B60000A0041542B514952443D302C312C302C39
:100B7000313032340D0A004F4B002B514952444959
:100B80003A20302C312C30003E0041542B51495337
:080B9000454E443D340D0A00FE
:080B98001E0EF66E000EF76E52
:100BA000000EF86E00010900F550A76F0900F5501E
:100BB000A86F03E1A76701D03DD00900F550A26FEF
:100BC0000900F550A36F0900F550A46F0900090052
:100BD000F550E96E0900F550EA6E090009000900B8
:100BE000F550A56F0900F550A66F09000900F6CF72
:100BF000A9F0F7CFAAF0F8CFABF0A2C0F6FFA3C0E0
:100C0000F7FFA4C0F8FF0001A55302E1A65307E0D7
:100C10000900F550EE6EA507F8E2A607F9D7A9C0BE
:100C2000F6FFAAC0F7FFABC0F8FF0001A707000E50
:060C3000A85BBFD7120013
:0A0C3600D9CFE6FFDACFE6FFFA0E91
:100C4000E3CFD9FFFB0EE3CFDAFFFC0EE3CFE9FFE2
:100C5000FD0EE3CFEAFFE9CFF3FFEACFF4FFDECFEB
:100C6000EFFFEE66FCD7FF0EE3CFDAFFE552FF0E93
:100C7000E3CFD9FFE5521200D9CFE6FFDACFE6FF86
:100C8000FC0EE3CFE9FFFD0EE3CFEAFFEF5016E0E5
:100C9000FA0EE3CFD9FFFB0EE3CFDAFFE9CFF3FF84
:100CA000EACFF4FFDE500CE0EF5C02E1EE50FAD741
:100CB000F3CFE9FFF4CFEAFFEE50E8D7F36AF46A26
:100CC000FF0EE3CFDAFFE552FF0EE3CFD9FFE55287
:020CD000120010
:0E0CD200D9CFE6FFDACFE6FFE1CFD9FFE2CFC0
:100CE000DAFFAC6AAB6AFD0EDBB0AC88DBA202D0E7
:100CF000AC8CAB8CDBB4AC8EDBA602D0AB8801D065
:100D0000AB8ADBB8AC849E98DBBAAB86DBAC02D096
:100D10009D8A01D09D9A9E9ADBAE02D09D8801D01B
:100D20009D98FB0EDB50AF6EFB0EFC0EDBCF01F08F
:100D300001C000F0016A0050B06EAC8AAB8E949C8A
:100D4000948EAC50100B04E0AC50800B01E1948CFD
:0C0D5000E552E5CFDAFFE7CFD9FF120033
:040D5C00D9CFE6FF06
:100D6000DACFE6FFE1CFD9FFE2CFDAFFACA2FED7C0
:100D7000FB0EDBCFF6FFFC0EDBCFF7FFFD0EDBCF6C
:100D8000F8FF0800F550E66EA2EC07F0E552D950E6
:100D9000FB0FE96EFF0EDA20EA6EEFCFF6FFEE2AC8
:100DA000EFCFF7FF000EEE22EFCFF8FFEE220800A4
:100DB000F550DCE1E552E5CFDAFFE7CFD9FF1200CD
:100DC000D9CFE6FFE1CFD9FF020EE126FD0EDBCF42
:100DD000DEFFDBCFDDFFD9CFE9FFDACFEAFF000E80
:100DE000D880EE54000EED540FE2FA0EE66E8BEC56
:100DF00007F0E552FA0EE66E8BEC07F0E552DF06DF
:100E0000010E01E2DB06E7D7020EE15C02E2E16AD5
:0C0E1000E552E16EE552E7CFD9FF120079
:040E1C00D9CFE6FF45
:100E2000DACFE6FFE1CFD9FFE2CFDAFFACA2FED7FF
:100E3000FC0EDBCFE9FFFD0EDBCFEAFFEF50E66EE5
:100E4000A2EC07F0E552FC0EDBCFE9FFDB2AFD0E3A
:100E5000DBCFEAFF01E3DB2AEF50E8E1E552E5CF23
:080E6000DAFFE7CFD9FF120011
:080E6800D9CFE6FFDACFE6FF67
:100E7000E1CFD9FFE2CFDAFFE652F20E0001B5175B
:100E8000ABAC03D0B591ABB0B581ABB4B585ABB26B
:100E9000B587AE50DF6EDF50E552E552E5CFDAFFA1
:060EA000E7CFD9FF1200AC
:0A0EA600D9CFE6FFDACFE6FFE1CF77
:100EB000D9FFE2CFDAFFE652E652FC0EDBCFDEFFCF
:100EC000DBCFDDFF010EDB50D76EDF50D66EE55273
:0E0ED000E552E552E5CFDAFFE7CFD9FF120079
:020EDE00D9CF6A
:100EE000E6FFDACFE6FFE1CFD9FFE2CFDAFFFD0E72
:100EF000DB507F0BD56ED76AD66AF294FD0EDBAE5F
:100F000002D0F28A01D0F29AD58EE552E5CFDAFF0F
:060F1000E7CFD9FF12003B
:0A0F1600FF0EE350066EEF0E01D04F
:100F2000F30EE76EE72E92EF07F00C0E056EE76A00
:100F3000E72E98EF07F0052E97EF07F0062E90EFBB
:040F400007F01200A4
:0C0F4400D9CFE6FFDACFE6FFE1CFD9FFFE
:100F5000E2CFDAFFACAC04D0AC900001B5B3AC800A
:100F6000FD0EDB50AD6EE552E5CFDAFFE7CFD9FFDE
:020F700012006D
:0E0F720013EE00F023EE00F0F86A049CCCECC5
:0E0F800005F003EC00F008EC04F0FBD71200C3
:020F8E0000EE73
:0C0F900000F00F0EEE6AEA62FDD71200BE
:020000040030CA
:0100000024DB
:010001004CB2
:010002001EDF
:010003001FDD
:010005008278
:0100060001F8
:0100080008EF
:01000900C036
:01000A000FE6
:01000B00E014
:01000C000FE4
:01000D0040B2
:00000001FF
